:040000000200773251
:01000B0032C2
:0100130032BA
:01001B0032B2
:0100230032AA
:01002B0032A2
:01003300329A
:01003B003292
:0300430002071B96
:2000D000750A13750B09750C80750D16750E09750F80751023751109751280E4F515F51695
:2000F00075174075189CC200C201C202903D007412F0903D017401F0903D02E4F07402A380
:20011000F0903D04E4F0903D05F0903D06F0903D077440F0903D087403F07404A3F0903D29
:200130000A7472F07483A3F0903D0CE4F07401A3F0903D0E7401F0903D0F7402F0903D1031
:20015000E4F0903D117401F0903D20740AF0903D217406F0903D22E4F07402A3F0903D2408
:20017000E4F0903D25F0903D26F0903D277440F0903D287401F0903D307409F0903D317408
:2001900002F0903D327420F0E4A3F0903D347401F0903D357401F0903D36E4F0903D377447
:2001B000A0F0903D38741EF0903D397409F0903D3A7404F0903D3BE4F0903D3CF0903D3D57
:2001D0007402F0903D3E74FFF0903D3F74FFF0903D4074FFF0903D41E4F0903D427407F000
:2001F000903D437405F0903D447481F0903D457402F0903D46E4F07402A3F0903D48E4F02F
:20021000903D497407F0903D4A7405F0903D4B7401F0903D4C7402F0903D4DE4F07402A3CA
:09023000F0903D4FE4F00200469D
:030046000208AEFF
:20023900AD82AE83AFF07B007C008D828E838FF01208E9F8A31208E9F9A31208E9FAE4C032
:20025900E0E4C0E0E4C0E0888289838AF0120049158115811581600E74032DFDE43EFE0BB6
:20027900BB00C70C80C48B828C832290E6B8E0FF530760BF0002800302070B90E6B9E0FF28
:2002990024F45003020701EF240A83F582EF241083F583E4730EB001670101C601FAF1A0CA
:2002B900CE05050706070702070404040490E6BBE0FFBF01028019BF02028046BF0303025E
:2002D90003B5BF06028022BF07030203680204957E007F3D8F0690E6B3EEF07E007F3D7F84
:2002F9000090E6B4EEF00207137E207F3D8F0690E6B3EEF07E207F3D7F0090E6B4EEF002E8
:200319000713903D317402F090E680E0FF30E714903D467440F0E4A3F0903D4D7440F0E476
:20033900A3F08012903D467440F0E4A3F0903D4D7440F0E4A3F07E307F3D8F0690E6B3EE06
:20035900F07E307F3D7F0090E6B4EEF0020713903D317407F090E680E0FF30E714903D460B
:200379007440F0E4A3F0903D4D7440F0E4A3F08012903D467440F0E4A3F0903D4D7440F096
:20039900E4A3F07E307F3D8F0690E6B3EEF07E307F3D7F0090E6B4EEF002071390E6BAE0AA
:2003B900FF90000A75F040C007120239AD82AE83D0077C00C3EF9DEC64808EF063F080951A
:2003D900F0400B90E6A0E0FF4401F0020713E4F513F51490E6BAE075F003A4240AF98703C1
:2003F9000987040987051919E5132BFBE5143CFC8B828C838DF01208E96060E51325E0FDE4
:2004190024022440FBE434E7FC90E6BAE075F003A4240AF987020987060987071919E51320
:200439002AFAE5143EFE8A828E838FF01208E9FA8B828C83F074032D2440F582E434E7F532
:2004590083E4F00513E4B513020514C3E513941FE5146480948050030203ECE51325E0FEAF
:200479000E0E90E740EEF090E7417403F00090E68AE4F00090E68BEEF002071390E6A0E0CE
:20049900FF4401F002071390E6BCE0FE7F00C3EE9401EF648094804003020713EE2409F9C4
:2004B900870590E740EDF090E68AE4F090E68B7401F002071390E6BCE0FDFE7F00C3EE94DC
:2004D90001EF648094804003020713EE2409F990E6BAE0FFF702071390E6BAE0F508020770
:2004F9001390E740E508F090E68AE4F090E68B7401F002071390E6B8E0FFBF8002800DBF4C
:200519008102802DBF8202803E0205A5A201E43325E0FFA202E433FE420790E740EFF090FF
:20053900E741E4F090E68AF090E68B7402F002071390E740E4F090E741F090E68AF090E69A
:200559008B7402F002071390E6BCE0FF53077E90E6BCE0FEC374809EE4334F90090993FF8D
:200579003395E0FE74A12FFF74E63EFE8F828E83E0FF53070190E740EFF090E741E4F090D5
:20059900E68AF090E68B7402F002071390E6A0E0FF4401F002071390E6B8E0FF6008BF02E3
:2005B90002801B02071390E6BAE0FFBF0105C20102071390E6A0E0FF4401F002071390E6FA
:2005D900BAE0600302065C90E6BCE0FF53077E90E6BCE0FEC374809EE4334F90090993FFB9
:2005F9003395E0FE74A12FFF74E63EFE90E6BCE0FD53057E90E6BCE0FCC374809CE4334DB9
:2006190090090993FD3395E0FC74A12DFD74E63CFC8D828C83E0FD5305FE8F828E83EDF0CA
:2006390090E6BCE05480C423541FFF90E6BCE0FE740F5E90E6832FF090E683E0FF4420F02D
:2006590002071390E6A0E0FF4401F002071390E6B8E0FF6008BF020280290206F790E6BA0F
:20067900E0FFBF0108300005D20102071390E6BAE0FFBF020302071390E6A0E0FF4401F07D
:2006990002071390E6BCE0FF53077E90E6BCE0FEC374809EE4334F90090993FF3395E0FE97
:2006B90074A12FFF74E63EFE90E6BCE0FD53057E90E6BCE0FCC374809CE4334D9009099369
:2006D900FD3395E0FC74A12DFD74E63CFC8D828C83E0FD4305018F828E83EDF0801C90E63A
:2006F900A0E0FF4401F0801290E6A0E0FF4401F0800890E6A0E0FF4401F090E6A0E0448005
:20071900F022C021C0E0C0F0C082C083C007C006C005C004C003C002C001C000C0D075D007
:2007390000AF9174EF5FF59190E65D7401F0120284D0D0D000D001D002D003D004D005D0E9
:2007590006D007D083D082D0F0D0E0D0213290E60174C0F00090E60B7403F00090E61074EE
:20077900A0F090E61174A0F090E612E4F090E613F090E614F090E615F00090E68D74FFF015
:2007990090E6B57401F075A88075E80190E65C7401F022AF8874CF5FF58890E7C07431F03A
:2007B90090E7C17401F000AF1590E68F74022FF0E4F515F51622AF82E51524C0FDE51634CF
:2007D900E7FE74022DFDE43EFE90E6A2E0FC20E1F88D828E83EFF00515E4B515020516C3C7
:2007F900E515943EE516940040031207ACE51545166019E58820E41474FFC39517FE74FFD7
:200819009518FD8D8C7F008E8A4388102290E68DE0FE7F0074012480FCE434E7FD1EBEFF1C
:20083900011F7A007B00C3EA9EEB9F50608C828D83E0F9B961004027E92485402274E0291C
:20085900F582C007C006C005C004C003C0021207CFD002D003D004D005D006D00780228C5C
:20087900828D83E0F582C007C006C005C004C003C0021207CFD002D003D004D005D006D0FF
:20089900070ABA00010B0CBC009C0D809990E68D74FFF0002290E680E04408F01207679034
:2008B900E680E04402F0E054F7F0AF8E74F75FF58E758901AF8874CF5FF58890E6A1E0FFB3
:1008D90020E103120826E58830E5F01207AC80EB29
:2009090000010202030304040505454E0066726565736F66742E6F72670046583220636196
:0D092900736520636F6E76657274657200F1
:0600A600E478FFF6D8FD2E
:200084007900E94400601B7A00900936780075A000E493F2A308B8000205A0D9F4DAF275E4
:0200A400A0FFBB
:2000AC007800E84400600A790075A000E4F309D8FC7800E84400600C7900900000E4F0A354
:0400CC00D8FCD9FA89
:20004900E58124FCC3C8C0E0C082E608467006E5824583601218E58296F58208E583964285
:1B0069008208E5F0964582D082C8D0E0C822758121120905E5826003020046C3
:1C08E90020F71430F6148883A88220F507E6A88375830022E280F7E49322E0221E
:0409050075820022D5
:00000001FF
